{
  "_format": "hh-sol-artifact-1",
  "contractName": "MyEpikNFT",
  "sourceName": "contracts/MyEpikNFT.sol",
  "abi": [
    {
      "inputs": [],
      "stateMutability": "nonpayable",
      "type": "constructor"
    },
    {
      "anonymous": false,
      "inputs": [
        {
          "indexed": true,
          "internalType": "address",
          "name": "owner",
          "type": "address"
        },
        {
          "indexed": true,
          "internalType": "address",
          "name": "approved",
          "type": "address"
        },
        {
          "indexed": true,
          "internalType": "uint256",
          "name": "tokenId",
          "type": "uint256"
        }
      ],
      "name": "Approval",
      "type": "event"
    },
    {
      "anonymous": false,
      "inputs": [
        {
          "indexed": true,
          "internalType": "address",
          "name": "owner",
          "type": "address"
        },
        {
          "indexed": true,
          "internalType": "address",
          "name": "operator",
          "type": "address"
        },
        {
          "indexed": false,
          "internalType": "bool",
          "name": "approved",
          "type": "bool"
        }
      ],
      "name": "ApprovalForAll",
      "type": "event"
    },
    {
      "anonymous": false,
      "inputs": [
        {
          "indexed": false,
          "internalType": "address",
          "name": "sender",
          "type": "address"
        },
        {
          "indexed": false,
          "internalType": "uint256",
          "name": "tokenId",
          "type": "uint256"
        },
        {
          "indexed": false,
          "internalType": "string",
          "name": "NftBase64",
          "type": "string"
        }
      ],
      "name": "NewEpicNFTMinted",
      "type": "event"
    },
    {
      "anonymous": false,
      "inputs": [
        {
          "indexed": true,
          "internalType": "address",
          "name": "from",
          "type": "address"
        },
        {
          "indexed": true,
          "internalType": "address",
          "name": "to",
          "type": "address"
        },
        {
          "indexed": true,
          "internalType": "uint256",
          "name": "tokenId",
          "type": "uint256"
        }
      ],
      "name": "Transfer",
      "type": "event"
    },
    {
      "inputs": [
        {
          "internalType": "address",
          "name": "to",
          "type": "address"
        },
        {
          "internalType": "uint256",
          "name": "tokenId",
          "type": "uint256"
        }
      ],
      "name": "approve",
      "outputs": [],
      "stateMutability": "nonpayable",
      "type": "function"
    },
    {
      "inputs": [
        {
          "internalType": "address",
          "name": "owner",
          "type": "address"
        }
      ],
      "name": "balanceOf",
      "outputs": [
        {
          "internalType": "uint256",
          "name": "",
          "type": "uint256"
        }
      ],
      "stateMutability": "view",
      "type": "function"
    },
    {
      "inputs": [
        {
          "internalType": "uint256",
          "name": "tokenId",
          "type": "uint256"
        }
      ],
      "name": "getApproved",
      "outputs": [
        {
          "internalType": "address",
          "name": "",
          "type": "address"
        }
      ],
      "stateMutability": "view",
      "type": "function"
    },
    {
      "inputs": [
        {
          "internalType": "address",
          "name": "owner",
          "type": "address"
        },
        {
          "internalType": "address",
          "name": "operator",
          "type": "address"
        }
      ],
      "name": "isApprovedForAll",
      "outputs": [
        {
          "internalType": "bool",
          "name": "",
          "type": "bool"
        }
      ],
      "stateMutability": "view",
      "type": "function"
    },
    {
      "inputs": [],
      "name": "makeAnEpikNFT",
      "outputs": [],
      "stateMutability": "nonpayable",
      "type": "function"
    },
    {
      "inputs": [],
      "name": "name",
      "outputs": [
        {
          "internalType": "string",
          "name": "",
          "type": "string"
        }
      ],
      "stateMutability": "view",
      "type": "function"
    },
    {
      "inputs": [
        {
          "internalType": "uint256",
          "name": "tokenId",
          "type": "uint256"
        }
      ],
      "name": "ownerOf",
      "outputs": [
        {
          "internalType": "address",
          "name": "",
          "type": "address"
        }
      ],
      "stateMutability": "view",
      "type": "function"
    },
    {
      "inputs": [
        {
          "internalType": "uint256",
          "name": "tokenId",
          "type": "uint256"
        }
      ],
      "name": "pickRandomColor",
      "outputs": [
        {
          "internalType": "string",
          "name": "",
          "type": "string"
        }
      ],
      "stateMutability": "view",
      "type": "function"
    },
    {
      "inputs": [
        {
          "internalType": "uint256",
          "name": "tokenId",
          "type": "uint256"
        }
      ],
      "name": "pickRandomFirstWord",
      "outputs": [
        {
          "internalType": "string",
          "name": "",
          "type": "string"
        }
      ],
      "stateMutability": "view",
      "type": "function"
    },
    {
      "inputs": [
        {
          "internalType": "uint256",
          "name": "tokenId",
          "type": "uint256"
        }
      ],
      "name": "pickRandomSecondWord",
      "outputs": [
        {
          "internalType": "string",
          "name": "",
          "type": "string"
        }
      ],
      "stateMutability": "view",
      "type": "function"
    },
    {
      "inputs": [
        {
          "internalType": "uint256",
          "name": "tokenId",
          "type": "uint256"
        }
      ],
      "name": "pickRandomThirdWord",
      "outputs": [
        {
          "internalType": "string",
          "name": "",
          "type": "string"
        }
      ],
      "stateMutability": "view",
      "type": "function"
    },
    {
      "inputs": [
        {
          "internalType": "address",
          "name": "from",
          "type": "address"
        },
        {
          "internalType": "address",
          "name": "to",
          "type": "address"
        },
        {
          "internalType": "uint256",
          "name": "tokenId",
          "type": "uint256"
        }
      ],
      "name": "safeTransferFrom",
      "outputs": [],
      "stateMutability": "nonpayable",
      "type": "function"
    },
    {
      "inputs": [
        {
          "internalType": "address",
          "name": "from",
          "type": "address"
        },
        {
          "internalType": "address",
          "name": "to",
          "type": "address"
        },
        {
          "internalType": "uint256",
          "name": "tokenId",
          "type": "uint256"
        },
        {
          "internalType": "bytes",
          "name": "_data",
          "type": "bytes"
        }
      ],
      "name": "safeTransferFrom",
      "outputs": [],
      "stateMutability": "nonpayable",
      "type": "function"
    },
    {
      "inputs": [
        {
          "internalType": "address",
          "name": "operator",
          "type": "address"
        },
        {
          "internalType": "bool",
          "name": "approved",
          "type": "bool"
        }
      ],
      "name": "setApprovalForAll",
      "outputs": [],
      "stateMutability": "nonpayable",
      "type": "function"
    },
    {
      "inputs": [
        {
          "internalType": "bytes4",
          "name": "interfaceId",
          "type": "bytes4"
        }
      ],
      "name": "supportsInterface",
      "outputs": [
        {
          "internalType": "bool",
          "name": "",
          "type": "bool"
        }
      ],
      "stateMutability": "view",
      "type": "function"
    },
    {
      "inputs": [],
      "name": "symbol",
      "outputs": [
        {
          "internalType": "string",
          "name": "",
          "type": "string"
        }
      ],
      "stateMutability": "view",
      "type": "function"
    },
    {
      "inputs": [
        {
          "internalType": "uint256",
          "name": "tokenId",
          "type": "uint256"
        }
      ],
      "name": "tokenURI",
      "outputs": [
        {
          "internalType": "string",
          "name": "",
          "type": "string"
        }
      ],
      "stateMutability": "view",
      "type": "function"
    },
    {
      "inputs": [
        {
          "internalType": "address",
          "name": "from",
          "type": "address"
        },
        {
          "internalType": "address",
          "name": "to",
          "type": "address"
        },
        {
          "internalType": "uint256",
          "name": "tokenId",
          "type": "uint256"
        }
      ],
      "name": "transferFrom",
      "outputs": [],
      "stateMutability": "nonpayable",
      "type": "function"
    }
  ],
  "bytecode": "0x608060405260405180610100016040528060d3815260200162004d7860d39139600890805190602001906200003692919062000e68565b5060405180608001604052806056815260200162004e4b60569139600990805190602001906200006892919062000e68565b50604051806101e001604052806040518060400160405280600581526020017f53696c6c7900000000000000000000000000000000000000000000000000000081525081526020016040518060400160405280600581526020017f536170707900000000000000000000000000000000000000000000000000000081525081526020016040518060400160405280600581526020017f517569636b00000000000000000000000000000000000000000000000000000081525081526020016040518060400160405280600481526020017f536c6f770000000000000000000000000000000000000000000000000000000081525081526020016040518060400160405280600681526020017f536d656c6c79000000000000000000000000000000000000000000000000000081525081526020016040518060400160405280600681526020017f44726f6f7079000000000000000000000000000000000000000000000000000081525081526020016040518060400160405280600681526020017f446563656e74000000000000000000000000000000000000000000000000000081525081526020016040518060400160405280600681526020017f4661756c7479000000000000000000000000000000000000000000000000000081525081526020016040518060400160405280600981526020017f53717565616c696e67000000000000000000000000000000000000000000000081525081526020016040518060400160405280600681526020017f536c65657079000000000000000000000000000000000000000000000000000081525081526020016040518060400160405280600681526020017f436c616d6d79000000000000000000000000000000000000000000000000000081525081526020016040518060400160405280600a81526020017f467574757269737469630000000000000000000000000000000000000000000081525081526020016040518060400160405280600a81526020017f4163636964656e74616c0000000000000000000000000000000000000000000081525081526020016040518060400160405280600581526020017f4769616e7400000000000000000000000000000000000000000000000000000081525081526020016040518060400160405280600581526020017f536d616c6c000000000000000000000000000000000000000000000000000000815250815250600a90600f620003fa92919062000ef9565b50604051806101e001604052806040518060400160405280600681526020017f506172726f74000000000000000000000000000000000000000000000000000081525081526020016040518060400160405280600381526020017f446f67000000000000000000000000000000000000000000000000000000000081525081526020016040518060400160405280600381526020017f436174000000000000000000000000000000000000000000000000000000000081525081526020016040518060400160405280600681526020017f4c697a617264000000000000000000000000000000000000000000000000000081525081526020016040518060400160405280600481526020017f476f61740000000000000000000000000000000000000000000000000000000081525081526020016040518060400160405280600481526020017f4c696f6e0000000000000000000000000000000000000000000000000000000081525081526020016040518060400160405280600681526020017f4b697474656e000000000000000000000000000000000000000000000000000081525081526020016040518060400160405280600681526020017f416c70616361000000000000000000000000000000000000000000000000000081525081526020016040518060400160405280600781526020017f476972616666650000000000000000000000000000000000000000000000000081525081526020016040518060400160405280600581526020017f536872657700000000000000000000000000000000000000000000000000000081525081526020016040518060400160405280600481526020017f426561720000000000000000000000000000000000000000000000000000000081525081526020016040518060400160405280600881526020017f466c616d696e676f00000000000000000000000000000000000000000000000081525081526020016040518060400160405280600381526020017f456c6b000000000000000000000000000000000000000000000000000000000081525081526020016040518060400160405280600381526020017f45656c000000000000000000000000000000000000000000000000000000000081525081526020016040518060400160405280600681526020017f53616c6d6f6e0000000000000000000000000000000000000000000000000000815250815250600b90600f6200078c92919062000ef9565b50604051806101e001604052806040518060400160405280600681526020017f4c6561646572000000000000000000000000000000000000000000000000000081525081526020016040518060400160405280600a81526020017f416476656e74757265720000000000000000000000000000000000000000000081525081526020016040518060400160405280600681526020017f446f63746f72000000000000000000000000000000000000000000000000000081525081526020016040518060400160405280600481526020017f426172640000000000000000000000000000000000000000000000000000000081525081526020016040518060400160405280600781526020017f4d6f6e617263680000000000000000000000000000000000000000000000000081525081526020016040518060400160405280600581526020017f447761726600000000000000000000000000000000000000000000000000000081525081526020016040518060400160405280600681526020017f4865616c6572000000000000000000000000000000000000000000000000000081525081526020016040518060400160405280600481526020017f4d6167650000000000000000000000000000000000000000000000000000000081525081526020016040518060400160405280600781526020017f57617272696f720000000000000000000000000000000000000000000000000081525081526020016040518060400160405280600b81526020017f4e6563726f6d616e63657200000000000000000000000000000000000000000081525081526020016040518060400160405280600481526020017f4865726f0000000000000000000000000000000000000000000000000000000081525081526020016040518060400160405280600681526020017f417263686572000000000000000000000000000000000000000000000000000081525081526020016040518060400160405280600781526020017f43756c746973740000000000000000000000000000000000000000000000000081525081526020016040518060400160405280600881526020017f417373617373696e00000000000000000000000000000000000000000000000081525081526020016040518060400160405280600881526020017f536f726365726572000000000000000000000000000000000000000000000000815250815250600c90600f62000b1e92919062000ef9565b506040518060c001604052806040518060400160405280600381526020017f726564000000000000000000000000000000000000000000000000000000000081525081526020016040518060400160405280600781526020017f233038433241380000000000000000000000000000000000000000000000000081525081526020016040518060400160405280600581526020017f626c61636b00000000000000000000000000000000000000000000000000000081525081526020016040518060400160405280600681526020017f79656c6c6f77000000000000000000000000000000000000000000000000000081525081526020016040518060400160405280600481526020017f626c75650000000000000000000000000000000000000000000000000000000081525081526020016040518060400160405280600581526020017f677265656e000000000000000000000000000000000000000000000000000000815250815250600d90600662000c9c92919062000f60565b5034801562000caa57600080fd5b506040518060400160405280600981526020017f5371756172654e465400000000000000000000000000000000000000000000008152506040518060400160405280600681526020017f5351554152450000000000000000000000000000000000000000000000000000815250816000908051906020019062000d2f92919062000e68565b50806001908051906020019062000d4892919062000e68565b50505062000d966040518060400160405280601e81526020017f54686973206973206d79204e465420636f6e74726163742e20576f616821000081525062000d9c60201b6200122c1760201c565b62001181565b62000e3c8160405160240162000db3919062001095565b6040516020818303038152906040527f41304fac000000000000000000000000000000000000000000000000000000007bffffffffffffffffffffffffffffffffffffffffffffffffffffffff19166020820180517bffffffffffffffffffffffffffffffffffffffffffffffffffffffff838183161783525050505062000e3f60201b60201c565b50565b60008151905060006a636f6e736f6c652e6c6f679050602083016000808483855afa5050505050565b82805462000e76906200110b565b90600052602060002090601f01602090048101928262000e9a576000855562000ee6565b82601f1062000eb557805160ff191683800117855562000ee6565b8280016001018555821562000ee6579182015b8281111562000ee557825182559160200191906001019062000ec8565b5b50905062000ef5919062000fc7565b5090565b82805482825590600052602060002090810192821562000f4d579160200282015b8281111562000f4c57825182908051906020019062000f3b92919062000e68565b509160200191906001019062000f1a565b5b50905062000f5c919062000fe6565b5090565b82805482825590600052602060002090810192821562000fb4579160200282015b8281111562000fb357825182908051906020019062000fa292919062000e68565b509160200191906001019062000f81565b5b50905062000fc3919062000fe6565b5090565b5b8082111562000fe257600081600090555060010162000fc8565b5090565b5b808211156200100a57600081816200100091906200100e565b5060010162000fe7565b5090565b5080546200101c906200110b565b6000825580601f1062001030575062001051565b601f01602090049060005260206000209081019062001050919062000fc7565b5b50565b60006200106182620010b9565b6200106d8185620010c4565b93506200107f818560208601620010d5565b6200108a8162001170565b840191505092915050565b60006020820190508181036000830152620010b1818462001054565b905092915050565b600081519050919050565b600082825260208201905092915050565b60005b83811015620010f5578082015181840152602081019050620010d8565b8381111562001105576000848401525b50505050565b600060028204905060018216806200112457607f821691505b602082108114156200113b576200113a62001141565b5b50919050565b7f4e487b7100000000000000000000000000000000000000000000000000000000600052602260045260246000fd5b6000601f19601f8301169050919050565b613be780620011916000396000f3fe608060405234801561001057600080fd5b50600436106101165760003560e01c80636352211e116100a2578063b187301f11610071578063b187301f146102f1578063b88d4fde14610321578063c575757a1461033d578063c87b56dd1461036d578063e985e9c51461039d57610116565b80636352211e1461025757806370a082311461028757806395d89b41146102b7578063a22cb465146102d557610116565b8063095ea7b3116100e9578063095ea7b3146101a357806323b872dd146101bf5780632de38d68146101db57806342842e0e1461020b578063514dc8c61461022757610116565b806301ffc9a71461011b578063055763281461014b57806306fdde0314610155578063081812fc14610173575b600080fd5b61013560048036038101906101309190612658565b6103cd565b6040516101429190612dd6565b60405180910390f35b6101536104af565b005b61015d6106ab565b60405161016a9190612df1565b60405180910390f35b61018d600480360381019061018891906126aa565b61073d565b60405161019a9190612d31565b60405180910390f35b6101bd60048036038101906101b8919061261c565b6107c2565b005b6101d960048036038101906101d49190612516565b6108da565b005b6101f560048036038101906101f091906126aa565b61093a565b6040516102029190612df1565b60405180910390f35b61022560048036038101906102209190612516565b610a58565b005b610241600480360381019061023c91906126aa565b610a78565b60405161024e9190612df1565b60405180910390f35b610271600480360381019061026c91906126aa565b610b96565b60405161027e9190612d31565b60405180910390f35b6102a1600480360381019061029c91906124b1565b610c48565b6040516102ae9190613051565b60405180910390f35b6102bf610d00565b6040516102cc9190612df1565b60405180910390f35b6102ef60048036038101906102ea91906125e0565b610d92565b005b61030b600480360381019061030691906126aa565b610da8565b6040516103189190612df1565b60405180910390f35b61033b60048036038101906103369190612565565b610ec6565b005b610357600480360381019061035291906126aa565b610f28565b6040516103649190612df1565b60405180910390f35b610387600480360381019061038291906126aa565b611046565b6040516103949190612df1565b60405180910390f35b6103b760048036038101906103b291906124da565b611198565b6040516103c49190612dd6565b60405180910390f35b60007f80ac58cd000000000000000000000000000000000000000000000000000000007bffffffffffffffffffffffffffffffffffffffffffffffffffffffff1916827bffffffffffffffffffffffffffffffffffffffffffffffffffffffff1916148061049857507f5b5e139f000000000000000000000000000000000000000000000000000000007bffffffffffffffffffffffffffffffffffffffffffffffffffffffff1916827bffffffffffffffffffffffffffffffffffffffffffffffffffffffff1916145b806104a857506104a7826112c5565b5b9050919050565b60006104bb600761132f565b905060006104c88261093a565b905060006104d583610da8565b905060006104e284610f28565b905060008383836040516020016104fb93929190612bc8565b6040516020818303038152906040529050600061051786610a78565b905060006008826009856040516020016105349493929190612bf9565b60405160208183030381529060405290506000610579846105548461133d565b604051602001610565929190612c86565b60405160208183030381529060405261133d565b905060008160405160200161058e9190612ced565b60405160208183030381529060405290506105dd6040518060400160405280601581526020017f0a2d2d2d2d2d2d2d2d2d2d2d2d2d2d2d2d2d2d2d2d000000000000000000000081525061122c565b6105e68161122c565b6106246040518060400160405280601581526020017f2d2d2d2d2d2d2d2d2d2d2d2d2d2d2d2d2d2d2d2d0a000000000000000000000081525061122c565b61062e338a6114fb565b6106388982611519565b610642600761158d565b610665604051806060016040528060258152602001613b4d602591398a336115a3565b7f4d3a24d1178b5e84c3f01818172d8951082caa1dad646fead020c45a049544ef338a8360405161069893929190612d98565b60405180910390a1505050505050505050565b6060600080546106ba906132e5565b80601f01602080910402602001604051908101604052809291908181526020018280546106e6906132e5565b80156107335780601f1061070857610100808354040283529160200191610733565b820191906000526020600020905b81548152906001019060200180831161071657829003601f168201915b5050505050905090565b600061074882611642565b610787576040517f08c379a000000000000000000000000000000000000000000000000000000000815260040161077e90612fd1565b60405180910390fd5b6004600083815260200190815260200160002060009054906101000a900473ffffffffffffffffffffffffffffffffffffffff169050919050565b60006107cd82610b96565b90508073ffffffffffffffffffffffffffffffffffffffff168373ffffffffffffffffffffffffffffffffffffffff16141561083e576040517f08c379a000000000000000000000000000000000000000000000000000000000815260040161083590613011565b60405180910390fd5b8073ffffffffffffffffffffffffffffffffffffffff1661085d6116ae565b73ffffffffffffffffffffffffffffffffffffffff16148061088c575061088b816108866116ae565b611198565b5b6108cb576040517f08c379a00000000000000000000000000000000000000000000000000000000081526004016108c290612f11565b60405180910390fd5b6108d583836116b6565b505050565b6108eb6108e56116ae565b8261176f565b61092a576040517f08c379a000000000000000000000000000000000000000000000000000000000815260040161092190613031565b60405180910390fd5b61093583838361184d565b505050565b6060600061096e61094a84611ab4565b60405160200161095a9190612ccb565b604051602081830303815290604052611c61565b9050600a80549050816109819190613391565b9050600a81815481106109bd577f4e487b7100000000000000000000000000000000000000000000000000000000600052603260045260246000fd5b9060005260206000200180546109d2906132e5565b80601f01602080910402602001604051908101604052809291908181526020018280546109fe906132e5565b8015610a4b5780601f10610a2057610100808354040283529160200191610a4b565b820191906000526020600020905b815481529060010190602001808311610a2e57829003601f168201915b5050505050915050919050565b610a7383838360405180602001604052806000815250610ec6565b505050565b60606000610aac610a8884611ab4565b604051602001610a989190612d0f565b604051602081830303815290604052611c61565b9050600d8054905081610abf9190613391565b9050600d8181548110610afb577f4e487b7100000000000000000000000000000000000000000000000000000000600052603260045260246000fd5b906000526020600020018054610b10906132e5565b80601f0160208091040260200160405190810160405280929190818152602001828054610b3c906132e5565b8015610b895780601f10610b5e57610100808354040283529160200191610b89565b820191906000526020600020905b815481529060010190602001808311610b6c57829003601f168201915b5050505050915050919050565b6000806002600084815260200190815260200160002060009054906101000a900473ffffffffffffffffffffffffffffffffffffffff169050600073ffffffffffffffffffffffffffffffffffffffff168173ffffffffffffffffffffffffffffffffffffffff161415610c3f576040517f08c379a0000000000000000000000000000000000000000000000000000000008152600401610c3690612f51565b60405180910390fd5b80915050919050565b60008073ffffffffffffffffffffffffffffffffffffffff168273ffffffffffffffffffffffffffffffffffffffff161415610cb9576040517f08c379a0000000000000000000000000000000000000000000000000000000008152600401610cb090612f31565b60405180910390fd5b600360008373ffffffffffffffffffffffffffffffffffffffff1673ffffffffffffffffffffffffffffffffffffffff168152602001908152602001600020549050919050565b606060018054610d0f906132e5565b80601f0160208091040260200160405190810160405280929190818152602001828054610d3b906132e5565b8015610d885780601f10610d5d57610100808354040283529160200191610d88565b820191906000526020600020905b815481529060010190602001808311610d6b57829003601f168201915b5050505050905090565b610da4610d9d6116ae565b8383611c94565b5050565b60606000610ddc610db884611ab4565b604051602001610dc89190612c64565b604051602081830303815290604052611c61565b9050600b8054905081610def9190613391565b9050600b8181548110610e2b577f4e487b7100000000000000000000000000000000000000000000000000000000600052603260045260246000fd5b906000526020600020018054610e40906132e5565b80601f0160208091040260200160405190810160405280929190818152602001828054610e6c906132e5565b8015610eb95780601f10610e8e57610100808354040283529160200191610eb9565b820191906000526020600020905b815481529060010190602001808311610e9c57829003601f168201915b5050505050915050919050565b610ed7610ed16116ae565b8361176f565b610f16576040517f08c379a0000000000000000000000000000000000000000000000000000000008152600401610f0d90613031565b60405180910390fd5b610f2284848484611e01565b50505050565b60606000610f5c610f3884611ab4565b604051602001610f489190612c42565b604051602081830303815290604052611c61565b9050600c8054905081610f6f9190613391565b9050600c8181548110610fab577f4e487b7100000000000000000000000000000000000000000000000000000000600052603260045260246000fd5b906000526020600020018054610fc0906132e5565b80601f0160208091040260200160405190810160405280929190818152602001828054610fec906132e5565b80156110395780601f1061100e57610100808354040283529160200191611039565b820191906000526020600020905b81548152906001019060200180831161101c57829003601f168201915b5050505050915050919050565b606061105182611642565b611090576040517f08c379a000000000000000000000000000000000000000000000000000000000815260040161108790612fb1565b60405180910390fd5b60006006600084815260200190815260200160002080546110b0906132e5565b80601f01602080910402602001604051908101604052809291908181526020018280546110dc906132e5565b80156111295780601f106110fe57610100808354040283529160200191611129565b820191906000526020600020905b81548152906001019060200180831161110c57829003601f168201915b50505050509050600061113a611e5d565b9050600081511415611150578192505050611193565b60008251111561118557808260405160200161116d929190612ba4565b60405160208183030381529060405292505050611193565b61118e84611e74565b925050505b919050565b6000600560008473ffffffffffffffffffffffffffffffffffffffff1673ffffffffffffffffffffffffffffffffffffffff16815260200190815260200160002060008373ffffffffffffffffffffffffffffffffffffffff1673ffffffffffffffffffffffffffffffffffffffff16815260200190815260200160002060009054906101000a900460ff16905092915050565b6112c2816040516024016112409190612df1565b6040516020818303038152906040527f41304fac000000000000000000000000000000000000000000000000000000007bffffffffffffffffffffffffffffffffffffffffffffffffffffffff19166020820180517bffffffffffffffffffffffffffffffffffffffffffffffffffffffff8381831617835250505050611f1b565b50565b60007f01ffc9a7000000000000000000000000000000000000000000000000000000007bffffffffffffffffffffffffffffffffffffffffffffffffffffffff1916827bffffffffffffffffffffffffffffffffffffffffffffffffffffffff1916149050919050565b600081600001549050919050565b6060600082519050600081141561136657604051806020016040528060008152509150506114f6565b60006003600283611377919061311a565b6113819190613170565b600461138d91906131a1565b9050600060208261139e919061311a565b67ffffffffffffffff8111156113dd577f4e487b7100000000000000000000000000000000000000000000000000000000600052604160045260246000fd5b6040519080825280601f01601f19166020018201604052801561140f5781602001600182028036833780820191505090505b5090506000604051806060016040528060408152602001613b72604091399050600181016020830160005b868110156114b35760038101905062ffffff818a015116603f8160121c168401518060081b905060ff603f83600c1c1686015116810190508060081b905060ff603f8360061c1686015116810190508060081b905060ff603f831686015116810190508060e01b9050808452600484019350505061143a565b5060038606600181146114cd57600281146114dd576114e8565b613d3d60f01b60028303526114e8565b603d60f81b60018303525b508484525050819450505050505b919050565b611515828260405180602001604052806000815250611f44565b5050565b61152282611642565b611561576040517f08c379a000000000000000000000000000000000000000000000000000000000815260040161155890612f71565b60405180910390fd5b8060066000848152602001908152602001600020908051906020019061158892919061233d565b505050565b6001816000016000828254019250508190555050565b61163d8383836040516024016115bb93929190612e13565b6040516020818303038152906040527fe3849f79000000000000000000000000000000000000000000000000000000007bffffffffffffffffffffffffffffffffffffffffffffffffffffffff19166020820180517bffffffffffffffffffffffffffffffffffffffffffffffffffffffff8381831617835250505050611f1b565b505050565b60008073ffffffffffffffffffffffffffffffffffffffff166002600084815260200190815260200160002060009054906101000a900473ffffffffffffffffffffffffffffffffffffffff1673ffffffffffffffffffffffffffffffffffffffff1614159050919050565b600033905090565b816004600083815260200190815260200160002060006101000a81548173ffffffffffffffffffffffffffffffffffffffff021916908373ffffffffffffffffffffffffffffffffffffffff160217905550808273ffffffffffffffffffffffffffffffffffffffff1661172983610b96565b73ffffffffffffffffffffffffffffffffffffffff167f8c5be1e5ebec7d5bd14f71427d1e84f3dd0314c0f7b2291e5b200ac8c7c3b92560405160405180910390a45050565b600061177a82611642565b6117b9576040517f08c379a00000000000000000000000000000000000000000000000000000000081526004016117b090612ef1565b60405180910390fd5b60006117c483610b96565b90508073ffffffffffffffffffffffffffffffffffffffff168473ffffffffffffffffffffffffffffffffffffffff16148061183357508373ffffffffffffffffffffffffffffffffffffffff1661181b8461073d565b73ffffffffffffffffffffffffffffffffffffffff16145b8061184457506118438185611198565b5b91505092915050565b8273ffffffffffffffffffffffffffffffffffffffff1661186d82610b96565b73ffffffffffffffffffffffffffffffffffffffff16146118c3576040517f08c379a00000000000000000000000000000000000000000000000000000000081526004016118ba90612e71565b60405180910390fd5b600073ffffffffffffffffffffffffffffffffffffffff168273ffffffffffffffffffffffffffffffffffffffff161415611933576040517f08c379a000000000000000000000000000000000000000000000000000000000815260040161192a90612eb1565b60405180910390fd5b61193e838383611f9f565b6119496000826116b6565b6001600360008573ffffffffffffffffffffffffffffffffffffffff1673ffffffffffffffffffffffffffffffffffffffff168152602001908152602001600020600082825461199991906131fb565b925050819055506001600360008473ffffffffffffffffffffffffffffffffffffffff1673ffffffffffffffffffffffffffffffffffffffff16815260200190815260200160002060008282546119f0919061311a565b92505081905550816002600083815260200190815260200160002060006101000a81548173ffffffffffffffffffffffffffffffffffffffff021916908373ffffffffffffffffffffffffffffffffffffffff160217905550808273ffffffffffffffffffffffffffffffffffffffff168473ffffffffffffffffffffffffffffffffffffffff167fddf252ad1be2c89b69c2b068fc378daa952ba7f163c4a11628f55a4df523b3ef60405160405180910390a4611aaf838383611fa4565b505050565b60606000821415611afc576040518060400160405280600181526020017f30000000000000000000000000000000000000000000000000000000000000008152509050611c5c565b600082905060005b60008214611b2e578080611b1790613348565b915050600a82611b279190613170565b9150611b04565b60008167ffffffffffffffff811115611b70577f4e487b7100000000000000000000000000000000000000000000000000000000600052604160045260246000fd5b6040519080825280601f01601f191660200182016040528015611ba25781602001600182028036833780820191505090505b5090505b60008514611c5557600182611bbb91906131fb565b9150600a85611bca9190613391565b6030611bd6919061311a565b60f81b818381518110611c12577f4e487b7100000000000000000000000000000000000000000000000000000000600052603260045260246000fd5b60200101907effffffffffffffffffffffffffffffffffffffffffffffffffffffffffffff1916908160001a905350600a85611c4e9190613170565b9450611ba6565b8093505050505b919050565b600081604051602001611c749190612b8d565b6040516020818303038152906040528051906020012060001c9050919050565b8173ffffffffffffffffffffffffffffffffffffffff168373ffffffffffffffffffffffffffffffffffffffff161415611d03576040517f08c379a0000000000000000000000000000000000000000000000000000000008152600401611cfa90612ed1565b60405180910390fd5b80600560008573ffffffffffffffffffffffffffffffffffffffff1673ffffffffffffffffffffffffffffffffffffffff16815260200190815260200160002060008473ffffffffffffffffffffffffffffffffffffffff1673ffffffffffffffffffffffffffffffffffffffff16815260200190815260200160002060006101000a81548160ff0219169083151502179055508173ffffffffffffffffffffffffffffffffffffffff168373ffffffffffffffffffffffffffffffffffffffff167f17307eab39ab6107e8899845ad3d59bd9653f200f220920489ca2b5937696c3183604051611df49190612dd6565b60405180910390a3505050565b611e0c84848461184d565b611e1884848484611fa9565b611e57576040517f08c379a0000000000000000000000000000000000000000000000000000000008152600401611e4e90612e51565b60405180910390fd5b50505050565b606060405180602001604052806000815250905090565b6060611e7f82611642565b611ebe576040517f08c379a0000000000000000000000000000000000000000000000000000000008152600401611eb590612ff1565b60405180910390fd5b6000611ec8611e5d565b90506000815111611ee85760405180602001604052806000815250611f13565b80611ef284611ab4565b604051602001611f03929190612ba4565b6040516020818303038152906040525b915050919050565b60008151905060006a636f6e736f6c652e6c6f679050602083016000808483855afa5050505050565b611f4e8383612140565b611f5b6000848484611fa9565b611f9a576040517f08c379a0000000000000000000000000000000000000000000000000000000008152600401611f9190612e51565b60405180910390fd5b505050565b505050565b505050565b6000611fca8473ffffffffffffffffffffffffffffffffffffffff1661231a565b15612133578373ffffffffffffffffffffffffffffffffffffffff1663150b7a02611ff36116ae565b8786866040518563ffffffff1660e01b81526004016120159493929190612d4c565b602060405180830381600087803b15801561202f57600080fd5b505af192505050801561206057506040513d601f19601f8201168201806040525081019061205d9190612681565b60015b6120e3573d8060008114612090576040519150601f19603f3d011682016040523d82523d6000602084013e612095565b606091505b506000815114156120db576040517f08c379a00000000000000000000000000000000000000000000000000000000081526004016120d290612e51565b60405180910390fd5b805181602001fd5b63150b7a0260e01b7bffffffffffffffffffffffffffffffffffffffffffffffffffffffff1916817bffffffffffffffffffffffffffffffffffffffffffffffffffffffff191614915050612138565b600190505b949350505050565b600073ffffffffffffffffffffffffffffffffffffffff168273ffffffffffffffffffffffffffffffffffffffff1614156121b0576040517f08c379a00000000000000000000000000000000000000000000000000000000081526004016121a790612f91565b60405180910390fd5b6121b981611642565b156121f9576040517f08c379a00000000000000000000000000000000000000000000000000000000081526004016121f090612e91565b60405180910390fd5b61220560008383611f9f565b6001600360008473ffffffffffffffffffffffffffffffffffffffff1673ffffffffffffffffffffffffffffffffffffffff1681526020019081526020016000206000828254612255919061311a565b92505081905550816002600083815260200190815260200160002060006101000a81548173ffffffffffffffffffffffffffffffffffffffff021916908373ffffffffffffffffffffffffffffffffffffffff160217905550808273ffffffffffffffffffffffffffffffffffffffff16600073ffffffffffffffffffffffffffffffffffffffff167fddf252ad1be2c89b69c2b068fc378daa952ba7f163c4a11628f55a4df523b3ef60405160405180910390a461231660008383611fa4565b5050565b6000808273ffffffffffffffffffffffffffffffffffffffff163b119050919050565b828054612349906132e5565b90600052602060002090601f01602090048101928261236b57600085556123b2565b82601f1061238457805160ff19168380011785556123b2565b828001600101855582156123b2579182015b828111156123b1578251825591602001919060010190612396565b5b5090506123bf91906123c3565b5090565b5b808211156123dc5760008160009055506001016123c4565b5090565b60006123f36123ee84613091565b61306c565b90508281526020810184848401111561240b57600080fd5b6124168482856132a3565b509392505050565b60008135905061242d81613af0565b92915050565b60008135905061244281613b07565b92915050565b60008135905061245781613b1e565b92915050565b60008151905061246c81613b1e565b92915050565b600082601f83011261248357600080fd5b81356124938482602086016123e0565b91505092915050565b6000813590506124ab81613b35565b92915050565b6000602082840312156124c357600080fd5b60006124d18482850161241e565b91505092915050565b600080604083850312156124ed57600080fd5b60006124fb8582860161241e565b925050602061250c8582860161241e565b9150509250929050565b60008060006060848603121561252b57600080fd5b60006125398682870161241e565b935050602061254a8682870161241e565b925050604061255b8682870161249c565b9150509250925092565b6000806000806080858703121561257b57600080fd5b60006125898782880161241e565b945050602061259a8782880161241e565b93505060406125ab8782880161249c565b925050606085013567ffffffffffffffff8111156125c857600080fd5b6125d487828801612472565b91505092959194509250565b600080604083850312156125f357600080fd5b60006126018582860161241e565b925050602061261285828601612433565b9150509250929050565b6000806040838503121561262f57600080fd5b600061263d8582860161241e565b925050602061264e8582860161249c565b9150509250929050565b60006020828403121561266a57600080fd5b600061267884828501612448565b91505092915050565b60006020828403121561269357600080fd5b60006126a18482850161245d565b91505092915050565b6000602082840312156126bc57600080fd5b60006126ca8482850161249c565b91505092915050565b6126dc8161322f565b82525050565b6126eb81613241565b82525050565b60006126fc826130d7565b61270681856130ed565b93506127168185602086016132b2565b61271f8161347e565b840191505092915050565b6000612735826130e2565b61273f81856130fe565b935061274f8185602086016132b2565b6127588161347e565b840191505092915050565b600061276e826130e2565b612778818561310f565b93506127888185602086016132b2565b80840191505092915050565b600081546127a1816132e5565b6127ab818661310f565b945060018216600081146127c657600181146127d75761280a565b60ff1983168652818601935061280a565b6127e0856130c2565b60005b83811015612802578154818901526001820191506020810190506127e3565b838801955050505b50505092915050565b60006128206032836130fe565b915061282b8261348f565b604082019050919050565b60006128436025836130fe565b915061284e826134de565b604082019050919050565b6000612866601c836130fe565b91506128718261352d565b602082019050919050565b6000612889600a8361310f565b915061289482613556565b600a82019050919050565b60006128ac6024836130fe565b91506128b78261357f565b604082019050919050565b60006128cf6019836130fe565b91506128da826135ce565b602082019050919050565b60006128f260638361310f565b91506128fd826135f7565b606382019050919050565b6000612915600b8361310f565b915061292082613692565b600b82019050919050565b6000612938602c836130fe565b9150612943826136bb565b604082019050919050565b600061295b600d8361310f565b91506129668261370a565b600d82019050919050565b600061297e6038836130fe565b915061298982613733565b604082019050919050565b60006129a1602a836130fe565b91506129ac82613782565b604082019050919050565b60006129c46029836130fe565b91506129cf826137d1565b604082019050919050565b60006129e7602e836130fe565b91506129f282613820565b604082019050919050565b6000612a0a60028361310f565b9150612a158261386f565b600282019050919050565b6000612a2d6020836130fe565b9150612a3882613898565b602082019050919050565b6000612a506031836130fe565b9150612a5b826138c1565b604082019050919050565b6000612a73602c836130fe565b9150612a7e82613910565b604082019050919050565b6000612a96602f836130fe565b9150612aa18261395f565b604082019050919050565b6000612ab9600a8361310f565b9150612ac4826139ae565b600a82019050919050565b6000612adc6021836130fe565b9150612ae7826139d7565b604082019050919050565b6000612aff600a8361310f565b9150612b0a82613a26565b600a82019050919050565b6000612b22601d8361310f565b9150612b2d82613a4f565b601d82019050919050565b6000612b456031836130fe565b9150612b5082613a78565b604082019050919050565b6000612b6860058361310f565b9150612b7382613ac7565b600582019050919050565b612b8781613299565b82525050565b6000612b998284612763565b915081905092915050565b6000612bb08285612763565b9150612bbc8284612763565b91508190509392505050565b6000612bd48286612763565b9150612be08285612763565b9150612bec8284612763565b9150819050949350505050565b6000612c058287612794565b9150612c118286612763565b9150612c1d8285612794565b9150612c298284612763565b9150612c348261294e565b915081905095945050505050565b6000612c4d8261287c565b9150612c598284612763565b915081905092915050565b6000612c6f82612908565b9150612c7b8284612763565b915081905092915050565b6000612c9182612aac565b9150612c9d8285612763565b9150612ca8826128e5565b9150612cb48284612763565b9150612cbf826129fd565b91508190509392505050565b6000612cd682612af2565b9150612ce28284612763565b915081905092915050565b6000612cf882612b15565b9150612d048284612763565b915081905092915050565b6000612d1a82612b5b565b9150612d268284612763565b915081905092915050565b6000602082019050612d4660008301846126d3565b92915050565b6000608082019050612d6160008301876126d3565b612d6e60208301866126d3565b612d7b6040830185612b7e565b8181036060830152612d8d81846126f1565b905095945050505050565b6000606082019050612dad60008301866126d3565b612dba6020830185612b7e565b8181036040830152612dcc818461272a565b9050949350505050565b6000602082019050612deb60008301846126e2565b92915050565b60006020820190508181036000830152612e0b818461272a565b905092915050565b60006060820190508181036000830152612e2d818661272a565b9050612e3c6020830185612b7e565b612e4960408301846126d3565b949350505050565b60006020820190508181036000830152612e6a81612813565b9050919050565b60006020820190508181036000830152612e8a81612836565b9050919050565b60006020820190508181036000830152612eaa81612859565b9050919050565b60006020820190508181036000830152612eca8161289f565b9050919050565b60006020820190508181036000830152612eea816128c2565b9050919050565b60006020820190508181036000830152612f0a8161292b565b9050919050565b60006020820190508181036000830152612f2a81612971565b9050919050565b60006020820190508181036000830152612f4a81612994565b9050919050565b60006020820190508181036000830152612f6a816129b7565b9050919050565b60006020820190508181036000830152612f8a816129da565b9050919050565b60006020820190508181036000830152612faa81612a20565b9050919050565b60006020820190508181036000830152612fca81612a43565b9050919050565b60006020820190508181036000830152612fea81612a66565b9050919050565b6000602082019050818103600083015261300a81612a89565b9050919050565b6000602082019050818103600083015261302a81612acf565b9050919050565b6000602082019050818103600083015261304a81612b38565b9050919050565b60006020820190506130666000830184612b7e565b92915050565b6000613076613087565b90506130828282613317565b919050565b6000604051905090565b600067ffffffffffffffff8211156130ac576130ab61344f565b5b6130b58261347e565b9050602081019050919050565b60008190508160005260206000209050919050565b600081519050919050565b600081519050919050565b600082825260208201905092915050565b600082825260208201905092915050565b600081905092915050565b600061312582613299565b915061313083613299565b9250827fffffffffffffffffffffffffffffffffffffffffffffffffffffffffffffffff03821115613165576131646133c2565b5b828201905092915050565b600061317b82613299565b915061318683613299565b925082613196576131956133f1565b5b828204905092915050565b60006131ac82613299565b91506131b783613299565b9250817fffffffffffffffffffffffffffffffffffffffffffffffffffffffffffffffff04831182151516156131f0576131ef6133c2565b5b828202905092915050565b600061320682613299565b915061321183613299565b925082821015613224576132236133c2565b5b828203905092915050565b600061323a82613279565b9050919050565b60008115159050919050565b60007fffffffff0000000000000000000000000000000000000000000000000000000082169050919050565b600073ffffffffffffffffffffffffffffffffffffffff82169050919050565b6000819050919050565b82818337600083830152505050565b60005b838110156132d05780820151818401526020810190506132b5565b838111156132df576000848401525b50505050565b600060028204905060018216806132fd57607f821691505b6020821081141561331157613310613420565b5b50919050565b6133208261347e565b810181811067ffffffffffffffff8211171561333f5761333e61344f565b5b80604052505050565b600061335382613299565b91507fffffffffffffffffffffffffffffffffffffffffffffffffffffffffffffffff821415613386576133856133c2565b5b600182019050919050565b600061339c82613299565b91506133a783613299565b9250826133b7576133b66133f1565b5b828206905092915050565b7f4e487b7100000000000000000000000000000000000000000000000000000000600052601160045260246000fd5b7f4e487b7100000000000000000000000000000000000000000000000000000000600052601260045260246000fd5b7f4e487b7100000000000000000000000000000000000000000000000000000000600052602260045260246000fd5b7f4e487b7100000000000000000000000000000000000000000000000000000000600052604160045260246000fd5b6000601f19601f8301169050919050565b7f4552433732313a207472616e7366657220746f206e6f6e20455243373231526560008201527f63656976657220696d706c656d656e7465720000000000000000000000000000602082015250565b7f4552433732313a207472616e736665722066726f6d20696e636f72726563742060008201527f6f776e6572000000000000000000000000000000000000000000000000000000602082015250565b7f4552433732313a20746f6b656e20616c7265616479206d696e74656400000000600082015250565b7f54484952445f574f524400000000000000000000000000000000000000000000600082015250565b7f4552433732313a207472616e7366657220746f20746865207a65726f2061646460008201527f7265737300000000000000000000000000000000000000000000000000000000602082015250565b7f4552433732313a20617070726f766520746f2063616c6c657200000000000000600082015250565b7f222c20226465736372697074696f6e223a20224120686967686c79206163636c60008201527f61696d656420636f6c6c656374696f6e206f6620737175617265732e222c202260208201527f696d616765223a2022646174613a696d6167652f7376672b786d6c3b6261736560408201527f36342c0000000000000000000000000000000000000000000000000000000000606082015250565b7f5345434f4e445f574f5244000000000000000000000000000000000000000000600082015250565b7f4552433732313a206f70657261746f7220717565727920666f72206e6f6e657860008201527f697374656e7420746f6b656e0000000000000000000000000000000000000000602082015250565b7f3c2f746578743e3c2f7376673e00000000000000000000000000000000000000600082015250565b7f4552433732313a20617070726f76652063616c6c6572206973206e6f74206f7760008201527f6e6572206e6f7220617070726f76656420666f7220616c6c0000000000000000602082015250565b7f4552433732313a2062616c616e636520717565727920666f7220746865207a6560008201527f726f206164647265737300000000000000000000000000000000000000000000602082015250565b7f4552433732313a206f776e657220717565727920666f72206e6f6e657869737460008201527f656e7420746f6b656e0000000000000000000000000000000000000000000000602082015250565b7f45524337323155524953746f726167653a2055524920736574206f66206e6f6e60008201527f6578697374656e7420746f6b656e000000000000000000000000000000000000602082015250565b7f227d000000000000000000000000000000000000000000000000000000000000600082015250565b7f4552433732313a206d696e7420746f20746865207a65726f2061646472657373600082015250565b7f45524337323155524953746f726167653a2055524920717565727920666f722060008201527f6e6f6e6578697374656e7420746f6b656e000000000000000000000000000000602082015250565b7f4552433732313a20617070726f76656420717565727920666f72206e6f6e657860008201527f697374656e7420746f6b656e0000000000000000000000000000000000000000602082015250565b7f4552433732314d657461646174613a2055524920717565727920666f72206e6f60008201527f6e6578697374656e7420746f6b656e0000000000000000000000000000000000602082015250565b7f7b226e616d65223a202200000000000000000000000000000000000000000000600082015250565b7f4552433732313a20617070726f76616c20746f2063757272656e74206f776e6560008201527f7200000000000000000000000000000000000000000000000000000000000000602082015250565b7f46495253545f574f524400000000000000000000000000000000000000000000600082015250565b7f646174613a6170706c69636174696f6e2f6a736f6e3b6261736536342c000000600082015250565b7f4552433732313a207472616e736665722063616c6c6572206973206e6f74206f60008201527f776e6572206e6f7220617070726f766564000000000000000000000000000000602082015250565b7f434f4c4f52000000000000000000000000000000000000000000000000000000600082015250565b613af98161322f565b8114613b0457600080fd5b50565b613b1081613241565b8114613b1b57600080fd5b50565b613b278161324d565b8114613b3257600080fd5b50565b613b3e81613299565b8114613b4957600080fd5b5056fe416e204e465420772f20494420257320686173206265656e206d696e74656420746f2025734142434445464748494a4b4c4d4e4f505152535455565758595a6162636465666768696a6b6c6d6e6f707172737475767778797a303132333435363738392b2fa264697066735822122036fe0baabf482716e2834a6df6a3a60ebb9210c07f76162a67f2232d2e83a58164736f6c634300080100333c73766720786d6c6e733d27687474703a2f2f7777772e77332e6f72672f323030302f73766727207072657365727665417370656374526174696f3d27784d696e594d696e206d656574272076696577426f783d273020302033353020333530273e3c7374796c653e2e62617365207b2066696c6c3a2077686974653b20666f6e742d66616d696c793a2073657269663b20666f6e742d73697a653a20323470783b207d3c2f7374796c653e3c726563742077696474683d273130302527206865696768743d2731303025272066696c6c3d27272f3e3c7465787420783d273530252720793d273530252720636c6173733d27626173652720646f6d696e616e742d626173656c696e653d276d6964646c652720746578742d616e63686f723d276d6964646c65273e",
  "linkReferences": {},
  "deployedLinkReferences": {}
}