{
  "_format": "hh-sol-artifact-1",
  "contractName": "MyEpikNFT",
  "sourceName": "contracts/MyEpikNFT.sol",
  "abi": [
    {
      "inputs": [],
      "stateMutability": "nonpayable",
      "type": "constructor"
    },
    {
      "anonymous": false,
      "inputs": [
        {
          "indexed": true,
          "internalType": "address",
          "name": "owner",
          "type": "address"
        },
        {
          "indexed": true,
          "internalType": "address",
          "name": "approved",
          "type": "address"
        },
        {
          "indexed": true,
          "internalType": "uint256",
          "name": "tokenId",
          "type": "uint256"
        }
      ],
      "name": "Approval",
      "type": "event"
    },
    {
      "anonymous": false,
      "inputs": [
        {
          "indexed": true,
          "internalType": "address",
          "name": "owner",
          "type": "address"
        },
        {
          "indexed": true,
          "internalType": "address",
          "name": "operator",
          "type": "address"
        },
        {
          "indexed": false,
          "internalType": "bool",
          "name": "approved",
          "type": "bool"
        }
      ],
      "name": "ApprovalForAll",
      "type": "event"
    },
    {
      "anonymous": false,
      "inputs": [
        {
          "indexed": true,
          "internalType": "address",
          "name": "from",
          "type": "address"
        },
        {
          "indexed": true,
          "internalType": "address",
          "name": "to",
          "type": "address"
        },
        {
          "indexed": true,
          "internalType": "uint256",
          "name": "tokenId",
          "type": "uint256"
        }
      ],
      "name": "Transfer",
      "type": "event"
    },
    {
      "inputs": [
        {
          "internalType": "address",
          "name": "to",
          "type": "address"
        },
        {
          "internalType": "uint256",
          "name": "tokenId",
          "type": "uint256"
        }
      ],
      "name": "approve",
      "outputs": [],
      "stateMutability": "nonpayable",
      "type": "function"
    },
    {
      "inputs": [
        {
          "internalType": "address",
          "name": "owner",
          "type": "address"
        }
      ],
      "name": "balanceOf",
      "outputs": [
        {
          "internalType": "uint256",
          "name": "",
          "type": "uint256"
        }
      ],
      "stateMutability": "view",
      "type": "function"
    },
    {
      "inputs": [
        {
          "internalType": "uint256",
          "name": "tokenId",
          "type": "uint256"
        }
      ],
      "name": "getApproved",
      "outputs": [
        {
          "internalType": "address",
          "name": "",
          "type": "address"
        }
      ],
      "stateMutability": "view",
      "type": "function"
    },
    {
      "inputs": [
        {
          "internalType": "address",
          "name": "owner",
          "type": "address"
        },
        {
          "internalType": "address",
          "name": "operator",
          "type": "address"
        }
      ],
      "name": "isApprovedForAll",
      "outputs": [
        {
          "internalType": "bool",
          "name": "",
          "type": "bool"
        }
      ],
      "stateMutability": "view",
      "type": "function"
    },
    {
      "inputs": [],
      "name": "makeAnEpikNFT",
      "outputs": [],
      "stateMutability": "nonpayable",
      "type": "function"
    },
    {
      "inputs": [],
      "name": "name",
      "outputs": [
        {
          "internalType": "string",
          "name": "",
          "type": "string"
        }
      ],
      "stateMutability": "view",
      "type": "function"
    },
    {
      "inputs": [
        {
          "internalType": "uint256",
          "name": "tokenId",
          "type": "uint256"
        }
      ],
      "name": "ownerOf",
      "outputs": [
        {
          "internalType": "address",
          "name": "",
          "type": "address"
        }
      ],
      "stateMutability": "view",
      "type": "function"
    },
    {
      "inputs": [
        {
          "internalType": "uint256",
          "name": "tokenId",
          "type": "uint256"
        }
      ],
      "name": "pickRandomFirstWord",
      "outputs": [
        {
          "internalType": "string",
          "name": "",
          "type": "string"
        }
      ],
      "stateMutability": "view",
      "type": "function"
    },
    {
      "inputs": [
        {
          "internalType": "uint256",
          "name": "tokenId",
          "type": "uint256"
        }
      ],
      "name": "pickRandomSecondWord",
      "outputs": [
        {
          "internalType": "string",
          "name": "",
          "type": "string"
        }
      ],
      "stateMutability": "view",
      "type": "function"
    },
    {
      "inputs": [
        {
          "internalType": "uint256",
          "name": "tokenId",
          "type": "uint256"
        }
      ],
      "name": "pickRandomThirdWord",
      "outputs": [
        {
          "internalType": "string",
          "name": "",
          "type": "string"
        }
      ],
      "stateMutability": "view",
      "type": "function"
    },
    {
      "inputs": [
        {
          "internalType": "address",
          "name": "from",
          "type": "address"
        },
        {
          "internalType": "address",
          "name": "to",
          "type": "address"
        },
        {
          "internalType": "uint256",
          "name": "tokenId",
          "type": "uint256"
        }
      ],
      "name": "safeTransferFrom",
      "outputs": [],
      "stateMutability": "nonpayable",
      "type": "function"
    },
    {
      "inputs": [
        {
          "internalType": "address",
          "name": "from",
          "type": "address"
        },
        {
          "internalType": "address",
          "name": "to",
          "type": "address"
        },
        {
          "internalType": "uint256",
          "name": "tokenId",
          "type": "uint256"
        },
        {
          "internalType": "bytes",
          "name": "_data",
          "type": "bytes"
        }
      ],
      "name": "safeTransferFrom",
      "outputs": [],
      "stateMutability": "nonpayable",
      "type": "function"
    },
    {
      "inputs": [
        {
          "internalType": "address",
          "name": "operator",
          "type": "address"
        },
        {
          "internalType": "bool",
          "name": "approved",
          "type": "bool"
        }
      ],
      "name": "setApprovalForAll",
      "outputs": [],
      "stateMutability": "nonpayable",
      "type": "function"
    },
    {
      "inputs": [
        {
          "internalType": "bytes4",
          "name": "interfaceId",
          "type": "bytes4"
        }
      ],
      "name": "supportsInterface",
      "outputs": [
        {
          "internalType": "bool",
          "name": "",
          "type": "bool"
        }
      ],
      "stateMutability": "view",
      "type": "function"
    },
    {
      "inputs": [],
      "name": "symbol",
      "outputs": [
        {
          "internalType": "string",
          "name": "",
          "type": "string"
        }
      ],
      "stateMutability": "view",
      "type": "function"
    },
    {
      "inputs": [
        {
          "internalType": "uint256",
          "name": "tokenId",
          "type": "uint256"
        }
      ],
      "name": "tokenURI",
      "outputs": [
        {
          "internalType": "string",
          "name": "",
          "type": "string"
        }
      ],
      "stateMutability": "view",
      "type": "function"
    },
    {
      "inputs": [
        {
          "internalType": "address",
          "name": "from",
          "type": "address"
        },
        {
          "internalType": "address",
          "name": "to",
          "type": "address"
        },
        {
          "internalType": "uint256",
          "name": "tokenId",
          "type": "uint256"
        }
      ],
      "name": "transferFrom",
      "outputs": [],
      "stateMutability": "nonpayable",
      "type": "function"
    }
  ],
  "bytecode": "0x608060405260405180610160016040528061012f8152602001620048f661012f9139600890805190602001906200003892919062000cba565b50604051806101e001604052806040518060400160405280600581526020017f53696c6c7900000000000000000000000000000000000000000000000000000081525081526020016040518060400160405280600581526020017f536170707900000000000000000000000000000000000000000000000000000081525081526020016040518060400160405280600581526020017f517569636b00000000000000000000000000000000000000000000000000000081525081526020016040518060400160405280600481526020017f536c6f770000000000000000000000000000000000000000000000000000000081525081526020016040518060400160405280600681526020017f536d656c6c79000000000000000000000000000000000000000000000000000081525081526020016040518060400160405280600681526020017f44726f6f7079000000000000000000000000000000000000000000000000000081525081526020016040518060400160405280600681526020017f446563656e74000000000000000000000000000000000000000000000000000081525081526020016040518060400160405280600681526020017f4661756c7479000000000000000000000000000000000000000000000000000081525081526020016040518060400160405280600981526020017f53717565616c696e67000000000000000000000000000000000000000000000081525081526020016040518060400160405280600681526020017f536c65657079000000000000000000000000000000000000000000000000000081525081526020016040518060400160405280600681526020017f436c616d6d79000000000000000000000000000000000000000000000000000081525081526020016040518060400160405280600a81526020017f467574757269737469630000000000000000000000000000000000000000000081525081526020016040518060400160405280600a81526020017f4163636964656e74616c0000000000000000000000000000000000000000000081525081526020016040518060400160405280600581526020017f4769616e7400000000000000000000000000000000000000000000000000000081525081526020016040518060400160405280600581526020017f536d616c6c000000000000000000000000000000000000000000000000000000815250815250600990600f620003ca92919062000d4b565b50604051806101e001604052806040518060400160405280600681526020017f506172726f74000000000000000000000000000000000000000000000000000081525081526020016040518060400160405280600381526020017f446f67000000000000000000000000000000000000000000000000000000000081525081526020016040518060400160405280600381526020017f436174000000000000000000000000000000000000000000000000000000000081525081526020016040518060400160405280600681526020017f4c697a617264000000000000000000000000000000000000000000000000000081525081526020016040518060400160405280600481526020017f476f61740000000000000000000000000000000000000000000000000000000081525081526020016040518060400160405280600481526020017f4c696f6e0000000000000000000000000000000000000000000000000000000081525081526020016040518060400160405280600681526020017f4b697474656e000000000000000000000000000000000000000000000000000081525081526020016040518060400160405280600681526020017f416c70616361000000000000000000000000000000000000000000000000000081525081526020016040518060400160405280600781526020017f476972616666650000000000000000000000000000000000000000000000000081525081526020016040518060400160405280600581526020017f536872657700000000000000000000000000000000000000000000000000000081525081526020016040518060400160405280600481526020017f426561720000000000000000000000000000000000000000000000000000000081525081526020016040518060400160405280600881526020017f466c616d696e676f00000000000000000000000000000000000000000000000081525081526020016040518060400160405280600381526020017f456c6b000000000000000000000000000000000000000000000000000000000081525081526020016040518060400160405280600381526020017f45656c000000000000000000000000000000000000000000000000000000000081525081526020016040518060400160405280600681526020017f53616c6d6f6e0000000000000000000000000000000000000000000000000000815250815250600a90600f6200075c92919062000d4b565b50604051806101e001604052806040518060400160405280600681526020017f4c6561646572000000000000000000000000000000000000000000000000000081525081526020016040518060400160405280600a81526020017f416476656e74757265720000000000000000000000000000000000000000000081525081526020016040518060400160405280600681526020017f446f63746f72000000000000000000000000000000000000000000000000000081525081526020016040518060400160405280600481526020017f426172640000000000000000000000000000000000000000000000000000000081525081526020016040518060400160405280600781526020017f4d6f6e617263680000000000000000000000000000000000000000000000000081525081526020016040518060400160405280600581526020017f447761726600000000000000000000000000000000000000000000000000000081525081526020016040518060400160405280600681526020017f4865616c6572000000000000000000000000000000000000000000000000000081525081526020016040518060400160405280600481526020017f4d6167650000000000000000000000000000000000000000000000000000000081525081526020016040518060400160405280600781526020017f57617272696f720000000000000000000000000000000000000000000000000081525081526020016040518060400160405280600b81526020017f4e6563726f6d616e63657200000000000000000000000000000000000000000081525081526020016040518060400160405280600481526020017f4865726f0000000000000000000000000000000000000000000000000000000081525081526020016040518060400160405280600681526020017f417263686572000000000000000000000000000000000000000000000000000081525081526020016040518060400160405280600781526020017f43756c746973740000000000000000000000000000000000000000000000000081525081526020016040518060400160405280600881526020017f417373617373696e00000000000000000000000000000000000000000000000081525081526020016040518060400160405280600881526020017f536f726365726572000000000000000000000000000000000000000000000000815250815250600b90600f62000aee92919062000d4b565b5034801562000afc57600080fd5b506040518060400160405280600981526020017f5371756172654e465400000000000000000000000000000000000000000000008152506040518060400160405280600681526020017f5351554152450000000000000000000000000000000000000000000000000000815250816000908051906020019062000b8192919062000cba565b50806001908051906020019062000b9a92919062000cba565b50505062000be86040518060400160405280601e81526020017f54686973206973206d79204e465420636f6e74726163742e20576f616821000081525062000bee60201b620010851760201c565b62000f6c565b62000c8e8160405160240162000c05919062000e80565b6040516020818303038152906040527f41304fac000000000000000000000000000000000000000000000000000000007bffffffffffffffffffffffffffffffffffffffffffffffffffffffff19166020820180517bffffffffffffffffffffffffffffffffffffffffffffffffffffffff838183161783525050505062000c9160201b60201c565b50565b60008151905060006a636f6e736f6c652e6c6f679050602083016000808483855afa5050505050565b82805462000cc89062000ef6565b90600052602060002090601f01602090048101928262000cec576000855562000d38565b82601f1062000d0757805160ff191683800117855562000d38565b8280016001018555821562000d38579182015b8281111562000d3757825182559160200191906001019062000d1a565b5b50905062000d47919062000db2565b5090565b82805482825590600052602060002090810192821562000d9f579160200282015b8281111562000d9e57825182908051906020019062000d8d92919062000cba565b509160200191906001019062000d6c565b5b50905062000dae919062000dd1565b5090565b5b8082111562000dcd57600081600090555060010162000db3565b5090565b5b8082111562000df5576000818162000deb919062000df9565b5060010162000dd2565b5090565b50805462000e079062000ef6565b6000825580601f1062000e1b575062000e3c565b601f01602090049060005260206000209081019062000e3b919062000db2565b5b50565b600062000e4c8262000ea4565b62000e58818562000eaf565b935062000e6a81856020860162000ec0565b62000e758162000f5b565b840191505092915050565b6000602082019050818103600083015262000e9c818462000e3f565b905092915050565b600081519050919050565b600082825260208201905092915050565b60005b8381101562000ee057808201518184015260208101905062000ec3565b8381111562000ef0576000848401525b50505050565b6000600282049050600182168062000f0f57607f821691505b6020821081141562000f265762000f2562000f2c565b5b50919050565b7f4e487b7100000000000000000000000000000000000000000000000000000000600052602260045260246000fd5b6000601f19601f8301169050919050565b61397a8062000f7c6000396000f3fe608060405234801561001057600080fd5b506004361061010b5760003560e01c80636352211e116100a2578063b187301f11610071578063b187301f146102b6578063b88d4fde146102e6578063c575757a14610302578063c87b56dd14610332578063e985e9c5146103625761010b565b80636352211e1461021c57806370a082311461024c57806395d89b411461027c578063a22cb4651461029a5761010b565b8063095ea7b3116100de578063095ea7b31461019857806323b872dd146101b45780632de38d68146101d057806342842e0e146102005761010b565b806301ffc9a714610110578063055763281461014057806306fdde031461014a578063081812fc14610168575b600080fd5b61012a600480360381019061012591906124b1565b610392565b6040516101379190612b92565b60405180910390f35b610148610474565b005b610152610622565b60405161015f9190612bad565b60405180910390f35b610182600480360381019061017d9190612503565b6106b4565b60405161018f9190612b2b565b60405180910390f35b6101b260048036038101906101ad9190612475565b610739565b005b6101ce60048036038101906101c9919061236f565b610851565b005b6101ea60048036038101906101e59190612503565b6108b1565b6040516101f79190612bad565b60405180910390f35b61021a6004803603810190610215919061236f565b6109cf565b005b61023660048036038101906102319190612503565b6109ef565b6040516102439190612b2b565b60405180910390f35b6102666004803603810190610261919061230a565b610aa1565b6040516102739190612e0d565b60405180910390f35b610284610b59565b6040516102919190612bad565b60405180910390f35b6102b460048036038101906102af9190612439565b610beb565b005b6102d060048036038101906102cb9190612503565b610c01565b6040516102dd9190612bad565b60405180910390f35b61030060048036038101906102fb91906123be565b610d1f565b005b61031c60048036038101906103179190612503565b610d81565b6040516103299190612bad565b60405180910390f35b61034c60048036038101906103479190612503565b610e9f565b6040516103599190612bad565b60405180910390f35b61037c60048036038101906103779190612333565b610ff1565b6040516103899190612b92565b60405180910390f35b60007f80ac58cd000000000000000000000000000000000000000000000000000000007bffffffffffffffffffffffffffffffffffffffffffffffffffffffff1916827bffffffffffffffffffffffffffffffffffffffffffffffffffffffff1916148061045d57507f5b5e139f000000000000000000000000000000000000000000000000000000007bffffffffffffffffffffffffffffffffffffffffffffffffffffffff1916827bffffffffffffffffffffffffffffffffffffffffffffffffffffffff1916145b8061046d575061046c8261111e565b5b9050919050565b60006104806007611188565b9050600061048d826108b1565b9050600061049a83610c01565b905060006104a784610d81565b905060008383836040516020016104c0939291906129fe565b604051602081830303815290604052905060006008826040516020016104e7929190612a2f565b6040516020818303038152906040529050600061052c8361050784611196565b604051602001610518929190612aa2565b604051602081830303815290604052611196565b90506000816040516020016105419190612b09565b60405160208183030381529060405290506105906040518060400160405280601581526020017f0a2d2d2d2d2d2d2d2d2d2d2d2d2d2d2d2d2d2d2d2d0000000000000000000000815250611085565b61059981611085565b6105d76040518060400160405280601581526020017f2d2d2d2d2d2d2d2d2d2d2d2d2d2d2d2d2d2d2d2d0a0000000000000000000000815250611085565b6105e13389611354565b6105eb8882611372565b6105f560076113e6565b6106186040518060600160405280602581526020016138e06025913989336113fc565b5050505050505050565b606060008054610631906130a1565b80601f016020809104026020016040519081016040528092919081815260200182805461065d906130a1565b80156106aa5780601f1061067f576101008083540402835291602001916106aa565b820191906000526020600020905b81548152906001019060200180831161068d57829003601f168201915b5050505050905090565b60006106bf8261149b565b6106fe576040517f08c379a00000000000000000000000000000000000000000000000000000000081526004016106f590612d8d565b60405180910390fd5b6004600083815260200190815260200160002060009054906101000a900473ffffffffffffffffffffffffffffffffffffffff169050919050565b6000610744826109ef565b90508073ffffffffffffffffffffffffffffffffffffffff168373ffffffffffffffffffffffffffffffffffffffff1614156107b5576040517f08c379a00000000000000000000000000000000000000000000000000000000081526004016107ac90612dcd565b60405180910390fd5b8073ffffffffffffffffffffffffffffffffffffffff166107d4611507565b73ffffffffffffffffffffffffffffffffffffffff1614806108035750610802816107fd611507565b610ff1565b5b610842576040517f08c379a000000000000000000000000000000000000000000000000000000000815260040161083990612ccd565b60405180910390fd5b61084c838361150f565b505050565b61086261085c611507565b826115c8565b6108a1576040517f08c379a000000000000000000000000000000000000000000000000000000000815260040161089890612ded565b60405180910390fd5b6108ac8383836116a6565b505050565b606060006108e56108c18461190d565b6040516020016108d19190612ae7565b604051602081830303815290604052611aba565b9050600980549050816108f8919061314d565b905060098181548110610934577f4e487b7100000000000000000000000000000000000000000000000000000000600052603260045260246000fd5b906000526020600020018054610949906130a1565b80601f0160208091040260200160405190810160405280929190818152602001828054610975906130a1565b80156109c25780601f10610997576101008083540402835291602001916109c2565b820191906000526020600020905b8154815290600101906020018083116109a557829003601f168201915b5050505050915050919050565b6109ea83838360405180602001604052806000815250610d1f565b505050565b6000806002600084815260200190815260200160002060009054906101000a900473ffffffffffffffffffffffffffffffffffffffff169050600073ffffffffffffffffffffffffffffffffffffffff168173ffffffffffffffffffffffffffffffffffffffff161415610a98576040517f08c379a0000000000000000000000000000000000000000000000000000000008152600401610a8f90612d0d565b60405180910390fd5b80915050919050565b60008073ffffffffffffffffffffffffffffffffffffffff168273ffffffffffffffffffffffffffffffffffffffff161415610b12576040517f08c379a0000000000000000000000000000000000000000000000000000000008152600401610b0990612ced565b60405180910390fd5b600360008373ffffffffffffffffffffffffffffffffffffffff1673ffffffffffffffffffffffffffffffffffffffff168152602001908152602001600020549050919050565b606060018054610b68906130a1565b80601f0160208091040260200160405190810160405280929190818152602001828054610b94906130a1565b8015610be15780601f10610bb657610100808354040283529160200191610be1565b820191906000526020600020905b815481529060010190602001808311610bc457829003601f168201915b5050505050905090565b610bfd610bf6611507565b8383611aed565b5050565b60606000610c35610c118461190d565b604051602001610c219190612a80565b604051602081830303815290604052611aba565b9050600a8054905081610c48919061314d565b9050600a8181548110610c84577f4e487b7100000000000000000000000000000000000000000000000000000000600052603260045260246000fd5b906000526020600020018054610c99906130a1565b80601f0160208091040260200160405190810160405280929190818152602001828054610cc5906130a1565b8015610d125780601f10610ce757610100808354040283529160200191610d12565b820191906000526020600020905b815481529060010190602001808311610cf557829003601f168201915b5050505050915050919050565b610d30610d2a611507565b836115c8565b610d6f576040517f08c379a0000000000000000000000000000000000000000000000000000000008152600401610d6690612ded565b60405180910390fd5b610d7b84848484611c5a565b50505050565b60606000610db5610d918461190d565b604051602001610da19190612a5e565b604051602081830303815290604052611aba565b9050600b8054905081610dc8919061314d565b9050600b8181548110610e04577f4e487b7100000000000000000000000000000000000000000000000000000000600052603260045260246000fd5b906000526020600020018054610e19906130a1565b80601f0160208091040260200160405190810160405280929190818152602001828054610e45906130a1565b8015610e925780601f10610e6757610100808354040283529160200191610e92565b820191906000526020600020905b815481529060010190602001808311610e7557829003601f168201915b5050505050915050919050565b6060610eaa8261149b565b610ee9576040517f08c379a0000000000000000000000000000000000000000000000000000000008152600401610ee090612d6d565b60405180910390fd5b6000600660008481526020019081526020016000208054610f09906130a1565b80601f0160208091040260200160405190810160405280929190818152602001828054610f35906130a1565b8015610f825780601f10610f5757610100808354040283529160200191610f82565b820191906000526020600020905b815481529060010190602001808311610f6557829003601f168201915b505050505090506000610f93611cb6565b9050600081511415610fa9578192505050610fec565b600082511115610fde578082604051602001610fc69291906129da565b60405160208183030381529060405292505050610fec565b610fe784611ccd565b925050505b919050565b6000600560008473ffffffffffffffffffffffffffffffffffffffff1673ffffffffffffffffffffffffffffffffffffffff16815260200190815260200160002060008373ffffffffffffffffffffffffffffffffffffffff1673ffffffffffffffffffffffffffffffffffffffff16815260200190815260200160002060009054906101000a900460ff16905092915050565b61111b816040516024016110999190612bad565b6040516020818303038152906040527f41304fac000000000000000000000000000000000000000000000000000000007bffffffffffffffffffffffffffffffffffffffffffffffffffffffff19166020820180517bffffffffffffffffffffffffffffffffffffffffffffffffffffffff8381831617835250505050611d74565b50565b60007f01ffc9a7000000000000000000000000000000000000000000000000000000007bffffffffffffffffffffffffffffffffffffffffffffffffffffffff1916827bffffffffffffffffffffffffffffffffffffffffffffffffffffffff1916149050919050565b600081600001549050919050565b606060008251905060008114156111bf576040518060200160405280600081525091505061134f565b600060036002836111d09190612ed6565b6111da9190612f2c565b60046111e69190612f5d565b905060006020826111f79190612ed6565b67ffffffffffffffff811115611236577f4e487b7100000000000000000000000000000000000000000000000000000000600052604160045260246000fd5b6040519080825280601f01601f1916602001820160405280156112685781602001600182028036833780820191505090505b5090506000604051806060016040528060408152602001613905604091399050600181016020830160005b8681101561130c5760038101905062ffffff818a015116603f8160121c168401518060081b905060ff603f83600c1c1686015116810190508060081b905060ff603f8360061c1686015116810190508060081b905060ff603f831686015116810190508060e01b90508084526004840193505050611293565b506003860660018114611326576002811461133657611341565b613d3d60f01b6002830352611341565b603d60f81b60018303525b508484525050819450505050505b919050565b61136e828260405180602001604052806000815250611d9d565b5050565b61137b8261149b565b6113ba576040517f08c379a00000000000000000000000000000000000000000000000000000000081526004016113b190612d2d565b60405180910390fd5b806006600084815260200190815260200160002090805190602001906113e1929190612196565b505050565b6001816000016000828254019250508190555050565b61149683838360405160240161141493929190612bcf565b6040516020818303038152906040527fe3849f79000000000000000000000000000000000000000000000000000000007bffffffffffffffffffffffffffffffffffffffffffffffffffffffff19166020820180517bffffffffffffffffffffffffffffffffffffffffffffffffffffffff8381831617835250505050611d74565b505050565b60008073ffffffffffffffffffffffffffffffffffffffff166002600084815260200190815260200160002060009054906101000a900473ffffffffffffffffffffffffffffffffffffffff1673ffffffffffffffffffffffffffffffffffffffff1614159050919050565b600033905090565b816004600083815260200190815260200160002060006101000a81548173ffffffffffffffffffffffffffffffffffffffff021916908373ffffffffffffffffffffffffffffffffffffffff160217905550808273ffffffffffffffffffffffffffffffffffffffff16611582836109ef565b73ffffffffffffffffffffffffffffffffffffffff167f8c5be1e5ebec7d5bd14f71427d1e84f3dd0314c0f7b2291e5b200ac8c7c3b92560405160405180910390a45050565b60006115d38261149b565b611612576040517f08c379a000000000000000000000000000000000000000000000000000000000815260040161160990612cad565b60405180910390fd5b600061161d836109ef565b90508073ffffffffffffffffffffffffffffffffffffffff168473ffffffffffffffffffffffffffffffffffffffff16148061168c57508373ffffffffffffffffffffffffffffffffffffffff16611674846106b4565b73ffffffffffffffffffffffffffffffffffffffff16145b8061169d575061169c8185610ff1565b5b91505092915050565b8273ffffffffffffffffffffffffffffffffffffffff166116c6826109ef565b73ffffffffffffffffffffffffffffffffffffffff161461171c576040517f08c379a000000000000000000000000000000000000000000000000000000000815260040161171390612c2d565b60405180910390fd5b600073ffffffffffffffffffffffffffffffffffffffff168273ffffffffffffffffffffffffffffffffffffffff16141561178c576040517f08c379a000000000000000000000000000000000000000000000000000000000815260040161178390612c6d565b60405180910390fd5b611797838383611df8565b6117a260008261150f565b6001600360008573ffffffffffffffffffffffffffffffffffffffff1673ffffffffffffffffffffffffffffffffffffffff16815260200190815260200160002060008282546117f29190612fb7565b925050819055506001600360008473ffffffffffffffffffffffffffffffffffffffff1673ffffffffffffffffffffffffffffffffffffffff16815260200190815260200160002060008282546118499190612ed6565b92505081905550816002600083815260200190815260200160002060006101000a81548173ffffffffffffffffffffffffffffffffffffffff021916908373ffffffffffffffffffffffffffffffffffffffff160217905550808273ffffffffffffffffffffffffffffffffffffffff168473ffffffffffffffffffffffffffffffffffffffff167fddf252ad1be2c89b69c2b068fc378daa952ba7f163c4a11628f55a4df523b3ef60405160405180910390a4611908838383611dfd565b505050565b60606000821415611955576040518060400160405280600181526020017f30000000000000000000000000000000000000000000000000000000000000008152509050611ab5565b600082905060005b6000821461198757808061197090613104565b915050600a826119809190612f2c565b915061195d565b60008167ffffffffffffffff8111156119c9577f4e487b7100000000000000000000000000000000000000000000000000000000600052604160045260246000fd5b6040519080825280601f01601f1916602001820160405280156119fb5781602001600182028036833780820191505090505b5090505b60008514611aae57600182611a149190612fb7565b9150600a85611a23919061314d565b6030611a2f9190612ed6565b60f81b818381518110611a6b577f4e487b7100000000000000000000000000000000000000000000000000000000600052603260045260246000fd5b60200101907effffffffffffffffffffffffffffffffffffffffffffffffffffffffffffff1916908160001a905350600a85611aa79190612f2c565b94506119ff565b8093505050505b919050565b600081604051602001611acd91906129c3565b6040516020818303038152906040528051906020012060001c9050919050565b8173ffffffffffffffffffffffffffffffffffffffff168373ffffffffffffffffffffffffffffffffffffffff161415611b5c576040517f08c379a0000000000000000000000000000000000000000000000000000000008152600401611b5390612c8d565b60405180910390fd5b80600560008573ffffffffffffffffffffffffffffffffffffffff1673ffffffffffffffffffffffffffffffffffffffff16815260200190815260200160002060008473ffffffffffffffffffffffffffffffffffffffff1673ffffffffffffffffffffffffffffffffffffffff16815260200190815260200160002060006101000a81548160ff0219169083151502179055508173ffffffffffffffffffffffffffffffffffffffff168373ffffffffffffffffffffffffffffffffffffffff167f17307eab39ab6107e8899845ad3d59bd9653f200f220920489ca2b5937696c3183604051611c4d9190612b92565b60405180910390a3505050565b611c658484846116a6565b611c7184848484611e02565b611cb0576040517f08c379a0000000000000000000000000000000000000000000000000000000008152600401611ca790612c0d565b60405180910390fd5b50505050565b606060405180602001604052806000815250905090565b6060611cd88261149b565b611d17576040517f08c379a0000000000000000000000000000000000000000000000000000000008152600401611d0e90612dad565b60405180910390fd5b6000611d21611cb6565b90506000815111611d415760405180602001604052806000815250611d6c565b80611d4b8461190d565b604051602001611d5c9291906129da565b6040516020818303038152906040525b915050919050565b60008151905060006a636f6e736f6c652e6c6f679050602083016000808483855afa5050505050565b611da78383611f99565b611db46000848484611e02565b611df3576040517f08c379a0000000000000000000000000000000000000000000000000000000008152600401611dea90612c0d565b60405180910390fd5b505050565b505050565b505050565b6000611e238473ffffffffffffffffffffffffffffffffffffffff16612173565b15611f8c578373ffffffffffffffffffffffffffffffffffffffff1663150b7a02611e4c611507565b8786866040518563ffffffff1660e01b8152600401611e6e9493929190612b46565b602060405180830381600087803b158015611e8857600080fd5b505af1925050508015611eb957506040513d601f19601f82011682018060405250810190611eb691906124da565b60015b611f3c573d8060008114611ee9576040519150601f19603f3d011682016040523d82523d6000602084013e611eee565b606091505b50600081511415611f34576040517f08c379a0000000000000000000000000000000000000000000000000000000008152600401611f2b90612c0d565b60405180910390fd5b805181602001fd5b63150b7a0260e01b7bffffffffffffffffffffffffffffffffffffffffffffffffffffffff1916817bffffffffffffffffffffffffffffffffffffffffffffffffffffffff191614915050611f91565b600190505b949350505050565b600073ffffffffffffffffffffffffffffffffffffffff168273ffffffffffffffffffffffffffffffffffffffff161415612009576040517f08c379a000000000000000000000000000000000000000000000000000000000815260040161200090612d4d565b60405180910390fd5b6120128161149b565b15612052576040517f08c379a000000000000000000000000000000000000000000000000000000000815260040161204990612c4d565b60405180910390fd5b61205e60008383611df8565b6001600360008473ffffffffffffffffffffffffffffffffffffffff1673ffffffffffffffffffffffffffffffffffffffff16815260200190815260200160002060008282546120ae9190612ed6565b92505081905550816002600083815260200190815260200160002060006101000a81548173ffffffffffffffffffffffffffffffffffffffff021916908373ffffffffffffffffffffffffffffffffffffffff160217905550808273ffffffffffffffffffffffffffffffffffffffff16600073ffffffffffffffffffffffffffffffffffffffff167fddf252ad1be2c89b69c2b068fc378daa952ba7f163c4a11628f55a4df523b3ef60405160405180910390a461216f60008383611dfd565b5050565b6000808273ffffffffffffffffffffffffffffffffffffffff163b119050919050565b8280546121a2906130a1565b90600052602060002090601f0160209004810192826121c4576000855561220b565b82601f106121dd57805160ff191683800117855561220b565b8280016001018555821561220b579182015b8281111561220a5782518255916020019190600101906121ef565b5b509050612218919061221c565b5090565b5b8082111561223557600081600090555060010161221d565b5090565b600061224c61224784612e4d565b612e28565b90508281526020810184848401111561226457600080fd5b61226f84828561305f565b509392505050565b60008135905061228681613883565b92915050565b60008135905061229b8161389a565b92915050565b6000813590506122b0816138b1565b92915050565b6000815190506122c5816138b1565b92915050565b600082601f8301126122dc57600080fd5b81356122ec848260208601612239565b91505092915050565b600081359050612304816138c8565b92915050565b60006020828403121561231c57600080fd5b600061232a84828501612277565b91505092915050565b6000806040838503121561234657600080fd5b600061235485828601612277565b925050602061236585828601612277565b9150509250929050565b60008060006060848603121561238457600080fd5b600061239286828701612277565b93505060206123a386828701612277565b92505060406123b4868287016122f5565b9150509250925092565b600080600080608085870312156123d457600080fd5b60006123e287828801612277565b94505060206123f387828801612277565b9350506040612404878288016122f5565b925050606085013567ffffffffffffffff81111561242157600080fd5b61242d878288016122cb565b91505092959194509250565b6000806040838503121561244c57600080fd5b600061245a85828601612277565b925050602061246b8582860161228c565b9150509250929050565b6000806040838503121561248857600080fd5b600061249685828601612277565b92505060206124a7858286016122f5565b9150509250929050565b6000602082840312156124c357600080fd5b60006124d1848285016122a1565b91505092915050565b6000602082840312156124ec57600080fd5b60006124fa848285016122b6565b91505092915050565b60006020828403121561251557600080fd5b6000612523848285016122f5565b91505092915050565b61253581612feb565b82525050565b61254481612ffd565b82525050565b600061255582612e93565b61255f8185612ea9565b935061256f81856020860161306e565b6125788161323a565b840191505092915050565b600061258e82612e9e565b6125988185612eba565b93506125a881856020860161306e565b6125b18161323a565b840191505092915050565b60006125c782612e9e565b6125d18185612ecb565b93506125e181856020860161306e565b80840191505092915050565b600081546125fa816130a1565b6126048186612ecb565b9450600182166000811461261f576001811461263057612663565b60ff19831686528186019350612663565b61263985612e7e565b60005b8381101561265b5781548189015260018201915060208101905061263c565b838801955050505b50505092915050565b6000612679603283612eba565b91506126848261324b565b604082019050919050565b600061269c602583612eba565b91506126a78261329a565b604082019050919050565b60006126bf601c83612eba565b91506126ca826132e9565b602082019050919050565b60006126e2600a83612ecb565b91506126ed82613312565b600a82019050919050565b6000612705602483612eba565b91506127108261333b565b604082019050919050565b6000612728601983612eba565b91506127338261338a565b602082019050919050565b600061274b600b83612ecb565b9150612756826133b3565b600b82019050919050565b600061276e602c83612eba565b9150612779826133dc565b604082019050919050565b6000612791600d83612ecb565b915061279c8261342b565b600d82019050919050565b60006127b4603883612eba565b91506127bf82613454565b604082019050919050565b60006127d7602a83612eba565b91506127e2826134a3565b604082019050919050565b60006127fa602983612eba565b9150612805826134f2565b604082019050919050565b600061281d602e83612eba565b915061282882613541565b604082019050919050565b6000612840600283612ecb565b915061284b82613590565b600282019050919050565b6000612863602083612eba565b915061286e826135b9565b602082019050919050565b6000612886603183612eba565b9150612891826135e2565b604082019050919050565b60006128a9602c83612eba565b91506128b482613631565b604082019050919050565b60006128cc602f83612eba565b91506128d782613680565b604082019050919050565b60006128ef600a83612ecb565b91506128fa826136cf565b600a82019050919050565b6000612912602183612eba565b915061291d826136f8565b604082019050919050565b6000612935600a83612ecb565b915061294082613747565b600a82019050919050565b6000612958601d83612ecb565b915061296382613770565b601d82019050919050565b600061297b603183612eba565b915061298682613799565b604082019050919050565b600061299e607e83612ecb565b91506129a9826137e8565b607e82019050919050565b6129bd81613055565b82525050565b60006129cf82846125bc565b915081905092915050565b60006129e682856125bc565b91506129f282846125bc565b91508190509392505050565b6000612a0a82866125bc565b9150612a1682856125bc565b9150612a2282846125bc565b9150819050949350505050565b6000612a3b82856125ed565b9150612a4782846125bc565b9150612a5282612784565b91508190509392505050565b6000612a69826126d5565b9150612a7582846125bc565b915081905092915050565b6000612a8b8261273e565b9150612a9782846125bc565b915081905092915050565b6000612aad826128e2565b9150612ab982856125bc565b9150612ac482612991565b9150612ad082846125bc565b9150612adb82612833565b91508190509392505050565b6000612af282612928565b9150612afe82846125bc565b915081905092915050565b6000612b148261294b565b9150612b2082846125bc565b915081905092915050565b6000602082019050612b40600083018461252c565b92915050565b6000608082019050612b5b600083018761252c565b612b68602083018661252c565b612b7560408301856129b4565b8181036060830152612b87818461254a565b905095945050505050565b6000602082019050612ba7600083018461253b565b92915050565b60006020820190508181036000830152612bc78184612583565b905092915050565b60006060820190508181036000830152612be98186612583565b9050612bf860208301856129b4565b612c05604083018461252c565b949350505050565b60006020820190508181036000830152612c268161266c565b9050919050565b60006020820190508181036000830152612c468161268f565b9050919050565b60006020820190508181036000830152612c66816126b2565b9050919050565b60006020820190508181036000830152612c86816126f8565b9050919050565b60006020820190508181036000830152612ca68161271b565b9050919050565b60006020820190508181036000830152612cc681612761565b9050919050565b60006020820190508181036000830152612ce6816127a7565b9050919050565b60006020820190508181036000830152612d06816127ca565b9050919050565b60006020820190508181036000830152612d26816127ed565b9050919050565b60006020820190508181036000830152612d4681612810565b9050919050565b60006020820190508181036000830152612d6681612856565b9050919050565b60006020820190508181036000830152612d8681612879565b9050919050565b60006020820190508181036000830152612da68161289c565b9050919050565b60006020820190508181036000830152612dc6816128bf565b9050919050565b60006020820190508181036000830152612de681612905565b9050919050565b60006020820190508181036000830152612e068161296e565b9050919050565b6000602082019050612e2260008301846129b4565b92915050565b6000612e32612e43565b9050612e3e82826130d3565b919050565b6000604051905090565b600067ffffffffffffffff821115612e6857612e6761320b565b5b612e718261323a565b9050602081019050919050565b60008190508160005260206000209050919050565b600081519050919050565b600081519050919050565b600082825260208201905092915050565b600082825260208201905092915050565b600081905092915050565b6000612ee182613055565b9150612eec83613055565b9250827fffffffffffffffffffffffffffffffffffffffffffffffffffffffffffffffff03821115612f2157612f2061317e565b5b828201905092915050565b6000612f3782613055565b9150612f4283613055565b925082612f5257612f516131ad565b5b828204905092915050565b6000612f6882613055565b9150612f7383613055565b9250817fffffffffffffffffffffffffffffffffffffffffffffffffffffffffffffffff0483118215151615612fac57612fab61317e565b5b828202905092915050565b6000612fc282613055565b9150612fcd83613055565b925082821015612fe057612fdf61317e565b5b828203905092915050565b6000612ff682613035565b9050919050565b60008115159050919050565b60007fffffffff0000000000000000000000000000000000000000000000000000000082169050919050565b600073ffffffffffffffffffffffffffffffffffffffff82169050919050565b6000819050919050565b82818337600083830152505050565b60005b8381101561308c578082015181840152602081019050613071565b8381111561309b576000848401525b50505050565b600060028204905060018216806130b957607f821691505b602082108114156130cd576130cc6131dc565b5b50919050565b6130dc8261323a565b810181811067ffffffffffffffff821117156130fb576130fa61320b565b5b80604052505050565b600061310f82613055565b91507fffffffffffffffffffffffffffffffffffffffffffffffffffffffffffffffff8214156131425761314161317e565b5b600182019050919050565b600061315882613055565b915061316383613055565b925082613173576131726131ad565b5b828206905092915050565b7f4e487b7100000000000000000000000000000000000000000000000000000000600052601160045260246000fd5b7f4e487b7100000000000000000000000000000000000000000000000000000000600052601260045260246000fd5b7f4e487b7100000000000000000000000000000000000000000000000000000000600052602260045260246000fd5b7f4e487b7100000000000000000000000000000000000000000000000000000000600052604160045260246000fd5b6000601f19601f8301169050919050565b7f4552433732313a207472616e7366657220746f206e6f6e20455243373231526560008201527f63656976657220696d706c656d656e7465720000000000000000000000000000602082015250565b7f4552433732313a207472616e736665722066726f6d20696e636f72726563742060008201527f6f776e6572000000000000000000000000000000000000000000000000000000602082015250565b7f4552433732313a20746f6b656e20616c7265616479206d696e74656400000000600082015250565b7f54484952445f574f524400000000000000000000000000000000000000000000600082015250565b7f4552433732313a207472616e7366657220746f20746865207a65726f2061646460008201527f7265737300000000000000000000000000000000000000000000000000000000602082015250565b7f4552433732313a20617070726f766520746f2063616c6c657200000000000000600082015250565b7f5345434f4e445f574f5244000000000000000000000000000000000000000000600082015250565b7f4552433732313a206f70657261746f7220717565727920666f72206e6f6e657860008201527f697374656e7420746f6b656e0000000000000000000000000000000000000000602082015250565b7f3c2f746578743e3c2f7376673e00000000000000000000000000000000000000600082015250565b7f4552433732313a20617070726f76652063616c6c6572206973206e6f74206f7760008201527f6e6572206e6f7220617070726f76656420666f7220616c6c0000000000000000602082015250565b7f4552433732313a2062616c616e636520717565727920666f7220746865207a6560008201527f726f206164647265737300000000000000000000000000000000000000000000602082015250565b7f4552433732313a206f776e657220717565727920666f72206e6f6e657869737460008201527f656e7420746f6b656e0000000000000000000000000000000000000000000000602082015250565b7f45524337323155524953746f726167653a2055524920736574206f66206e6f6e60008201527f6578697374656e7420746f6b656e000000000000000000000000000000000000602082015250565b7f227d000000000000000000000000000000000000000000000000000000000000600082015250565b7f4552433732313a206d696e7420746f20746865207a65726f2061646472657373600082015250565b7f45524337323155524953746f726167653a2055524920717565727920666f722060008201527f6e6f6e6578697374656e7420746f6b656e000000000000000000000000000000602082015250565b7f4552433732313a20617070726f76656420717565727920666f72206e6f6e657860008201527f697374656e7420746f6b656e0000000000000000000000000000000000000000602082015250565b7f4552433732314d657461646174613a2055524920717565727920666f72206e6f60008201527f6e6578697374656e7420746f6b656e0000000000000000000000000000000000602082015250565b7f7b226e616d65223a202200000000000000000000000000000000000000000000600082015250565b7f4552433732313a20617070726f76616c20746f2063757272656e74206f776e6560008201527f7200000000000000000000000000000000000000000000000000000000000000602082015250565b7f46495253545f574f524400000000000000000000000000000000000000000000600082015250565b7f646174613a6170706c69636174696f6e2f6a736f6e3b6261736536342c000000600082015250565b7f4552433732313a207472616e736665722063616c6c6572206973206e6f74206f60008201527f776e6572206e6f7220617070726f766564000000000000000000000000000000602082015250565b7f222c20226465736372697074696f6e223a20224120686967686c79206163636c60008201527f61696d656420636f6c6c656374696f6e206f6620416e696d616c73207769746860208201527f207761636b7920776f72647320696e2073717561726573222c2022696d61676560408201527f223a2022646174613a696d6167652f7376672b786d6c3b6261736536342c0000606082015250565b61388c81612feb565b811461389757600080fd5b50565b6138a381612ffd565b81146138ae57600080fd5b50565b6138ba81613009565b81146138c557600080fd5b50565b6138d181613055565b81146138dc57600080fd5b5056fe416e204e465420772f20494420257320686173206265656e206d696e74656420746f2025734142434445464748494a4b4c4d4e4f505152535455565758595a6162636465666768696a6b6c6d6e6f707172737475767778797a303132333435363738392b2fa26469706673582212205ff2680d901cc5895fa34a1323d43ef78ce5140092a597e77923cdcdd2c710c164736f6c634300080100333c73766720786d6c6e733d27687474703a2f2f7777772e77332e6f72672f323030302f73766727207072657365727665417370656374526174696f3d27784d696e594d696e206d656574272076696577426f783d273020302033353020333530273e3c7374796c653e2e62617365207b2066696c6c3a2077686974653b20666f6e742d66616d696c793a2073657269663b20666f6e742d73697a653a20323470783b207d3c2f7374796c653e3c726563742077696474683d273130302527206865696768743d2731303025272066696c6c3d27626c61636b27202f3e3c7465787420783d273530252720793d273530252720636c6173733d27626173652720646f6d696e616e742d626173656c696e653d276d6964646c652720746578742d616e63686f723d276d6964646c65273e",
  "linkReferences": {},
  "deployedLinkReferences": {}
}